{
  "contractName": "Monolith",
  "abi": [
    {
      "constant": true,
      "inputs": [
        {
          "name": "",
          "type": "uint256"
        }
      ],
      "name": "fictions",
      "outputs": [
        {
          "name": "from",
          "type": "uint256"
        },
        {
          "name": "meta",
          "type": "string"
        },
        {
          "name": "content",
          "type": "string"
        }
      ],
      "payable": false,
      "stateMutability": "view",
      "type": "function",
      "signature": "0x0e54492e"
    },
    {
      "constant": true,
      "inputs": [],
      "name": "publishCount",
      "outputs": [
        {
          "name": "",
          "type": "uint256"
        }
      ],
      "payable": false,
      "stateMutability": "view",
      "type": "function",
      "signature": "0xb3c65e88"
    },
    {
      "inputs": [],
      "payable": false,
      "stateMutability": "nonpayable",
      "type": "constructor",
      "signature": "constructor"
    },
    {
      "anonymous": false,
      "inputs": [
        {
          "indexed": false,
          "name": "id",
          "type": "uint256"
        },
        {
          "indexed": false,
          "name": "meta",
          "type": "string"
        }
      ],
      "name": "FictionPublished",
      "type": "event",
      "signature": "0x876444e1b96e308d559d54b256109419e023a401d62f05bf78f502363247cd8d"
    },
    {
      "constant": false,
      "inputs": [
        {
          "name": "_from",
          "type": "uint256"
        },
        {
          "name": "_meta",
          "type": "string"
        },
        {
          "name": "_content",
          "type": "string"
        }
      ],
      "name": "publish",
      "outputs": [],
      "payable": false,
      "stateMutability": "nonpayable",
      "type": "function",
      "signature": "0xf0006940"
    }
  ],
  "bytecode": "0x60806040526000805534801561001457600080fd5b5060408051606081018252600080825282516020818101855282825280840191825284518082018652838152948401949094529080526001835281517fa6eef7e35abe7026729641147f7915573c7e97b47efa546f5f6e3230263bcb4990815590518051929391926100a9927fa6eef7e35abe7026729641147f7915573c7e97b47efa546f5f6e3230263bcb4a920190610107565b50604082015180516100c5916002840191602090910190610107565b5050600080525060026020527fac33ff75c19e70fe83507db0d683fd3465c996598dc972688b7ace676c89077b8054600160a060020a031916331790556101a2565b828054600181600116156101000203166002900490600052602060002090601f016020900481019282601f1061014857805160ff1916838001178555610175565b82800160010185558215610175579182015b8281111561017557825182559160200191906001019061015a565b50610181929150610185565b5090565b61019f91905b80821115610181576000815560010161018b565b90565b61069a806101b16000396000f3fe6080604052600436106100565763ffffffff7c01000000000000000000000000000000000000000000000000000000006000350416630e54492e811461005b578063b3c65e881461016a578063f000694014610191575b600080fd5b34801561006757600080fd5b506100856004803603602081101561007e57600080fd5b50356102d4565b604051808481526020018060200180602001838103835285818151815260200191508051906020019080838360005b838110156100cc5781810151838201526020016100b4565b50505050905090810190601f1680156100f95780820380516001836020036101000a031916815260200191505b50838103825284518152845160209182019186019080838360005b8381101561012c578181015183820152602001610114565b50505050905090810190601f1680156101595780820380516001836020036101000a031916815260200191505b509550505050505060405180910390f35b34801561017657600080fd5b5061017f61040c565b60408051918252519081900360200190f35b34801561019d57600080fd5b506102d2600480360360608110156101b457600080fd5b813591908101906040810160208201356401000000008111156101d657600080fd5b8201836020820111156101e857600080fd5b8035906020019184600183028401116401000000008311171561020a57600080fd5b91908080601f016020809104026020016040519081016040528093929190818152602001838380828437600092019190915250929594936020810193503591505064010000000081111561025d57600080fd5b82018360208201111561026f57600080fd5b8035906020019184600183028401116401000000008311171561029157600080fd5b91908080601f016020809104026020016040519081016040528093929190818152602001838380828437600092019190915250929550610412945050505050565b005b600160208181526000928352604092839020805481840180548651600296821615610100026000190190911695909504601f810185900485028601850190965285855290949193929091908301828280156103705780601f1061034557610100808354040283529160200191610370565b820191906000526020600020905b81548152906001019060200180831161035357829003601f168201915b50505060028085018054604080516020601f60001961010060018716150201909416959095049283018590048502810185019091528181529596959450909250908301828280156104025780601f106103d757610100808354040283529160200191610402565b820191906000526020600020905b8154815290600101906020018083116103e557829003601f168201915b5050505050905083565b60005481565b6000831015801561042557506000548311155b151561049257604080517f08c379a000000000000000000000000000000000000000000000000000000000815260206004820152601760248201527f696e76616c6964206372656469742866726f6d20696429000000000000000000604482015290519081900360640190fd5b60008054600190810180835560408051606081018252878152602080820188815282840188905293865284815291909420845181559151805192936104df939085019291909101906105d3565b50604082015180516104fb9160028401916020909101906105d3565b509050507f876444e1b96e308d559d54b256109419e023a401d62f05bf78f502363247cd8d600054836040518083815260200180602001828103825283818151815260200191508051906020019080838360005b8381101561056757818101518382015260200161054f565b50505050905090810190601f1680156105945780820380516001836020036101000a031916815260200191505b50935050505060405180910390a15050600080548152600260205260409020805473ffffffffffffffffffffffffffffffffffffffff19163317905550565b828054600181600116156101000203166002900490600052602060002090601f016020900481019282601f1061061457805160ff1916838001178555610641565b82800160010185558215610641579182015b82811115610641578251825591602001919060010190610626565b5061064d929150610651565b5090565b61066b91905b8082111561064d5760008155600101610657565b9056fea165627a7a72305820f074c53c1020172af176ad32121cff76d2d765a7d77372a5a08f1508918c0a190029",
  "source": "pragma solidity ^0.5.0;\r\n\r\n\r\ncontract Monolith {\r\n    uint256 public publishCount = 0;\r\n\r\n    struct Fiction {\r\n        uint256 from;\r\n        string meta;\r\n        string content;\r\n    }\r\n\r\n    mapping(uint256 => Fiction) public fictions;\r\n    event FictionPublished(uint256 id, string meta); // content?\r\n\r\n    constructor() public {\r\n        fictions[0] = Fiction(0, \"\", \"\");\r\n        credit[0] = msg.sender;\r\n    }\r\n\r\n    function publish(\r\n        uint256 _from,\r\n        string memory _meta,\r\n        string memory _content\r\n    ) public {\r\n        require(_from >= 0 && _from <= publishCount, \"invalid credit(from id)\");\r\n        publishCount++;\r\n        fictions[publishCount] = Fiction(_from, _meta, _content);\r\n        emit FictionPublished(publishCount, _meta);\r\n\r\n        credit[publishCount] = msg.sender;\r\n        // VERY incomplete\r\n        // reward for how much?\r\n        // credit[_from].transfer(1000);\r\n    }\r\n\r\n    mapping(uint256 => address payable) credit;\r\n}\r\n",
  "sourcePath": "C:/dofdev/openfiction/contracts/Monolith.sol",
  "compiler": {
    "name": "solc",
    "version": "0.5.0+commit.1d4f565a.Emscripten.clang"
  },
  "schemaVersion": "3.0.1",
  "updatedAt": "2020-05-01T00:32:19.027Z",
  "devdoc": {
    "methods": {}
  },
  "userdoc": {
    "methods": {}
  }
}