{
  "contractName": "Monolith",
  "abi": [
    {
      "constant": true,
      "inputs": [
        {
          "name": "",
          "type": "uint256"
        }
      ],
      "name": "fictions",
      "outputs": [
        {
          "name": "from",
          "type": "uint256"
        },
        {
          "name": "publisher",
          "type": "address"
        },
        {
          "name": "meta",
          "type": "string"
        },
        {
          "name": "content",
          "type": "string"
        }
      ],
      "payable": false,
      "stateMutability": "view",
      "type": "function",
      "signature": "0x0e54492e"
    },
    {
      "constant": true,
      "inputs": [],
      "name": "publishCount",
      "outputs": [
        {
          "name": "",
          "type": "uint256"
        }
      ],
      "payable": false,
      "stateMutability": "view",
      "type": "function",
      "signature": "0xb3c65e88"
    },
    {
      "constant": true,
      "inputs": [
        {
          "name": "",
          "type": "address"
        }
      ],
      "name": "tokens",
      "outputs": [
        {
          "name": "",
          "type": "uint256"
        }
      ],
      "payable": false,
      "stateMutability": "view",
      "type": "function",
      "signature": "0xe4860339"
    },
    {
      "inputs": [],
      "payable": false,
      "stateMutability": "nonpayable",
      "type": "constructor",
      "signature": "constructor"
    },
    {
      "anonymous": false,
      "inputs": [
        {
          "indexed": false,
          "name": "id",
          "type": "uint256"
        },
        {
          "indexed": false,
          "name": "meta",
          "type": "string"
        }
      ],
      "name": "FictionPublished",
      "type": "event",
      "signature": "0x876444e1b96e308d559d54b256109419e023a401d62f05bf78f502363247cd8d"
    },
    {
      "constant": false,
      "inputs": [
        {
          "name": "_from",
          "type": "uint256"
        },
        {
          "name": "_publisher",
          "type": "address"
        },
        {
          "name": "_meta",
          "type": "string"
        },
        {
          "name": "_content",
          "type": "string"
        }
      ],
      "name": "publish",
      "outputs": [],
      "payable": false,
      "stateMutability": "nonpayable",
      "type": "function",
      "signature": "0x64afe61c"
    }
  ],
  "bytecode": "0x60806040526000805534801561001457600080fd5b5060408051608081018252600080825233602080840191825284518082018652838152848601908152855180830190965283865260608501959095529180526001825282517fa6eef7e35abe7026729641147f7915573c7e97b47efa546f5f6e3230263bcb4990815590517fa6eef7e35abe7026729641147f7915573c7e97b47efa546f5f6e3230263bcb4a8054600160a060020a031916600160a060020a03909216919091179055925180519293926100f1927fa6eef7e35abe7026729641147f7915573c7e97b47efa546f5f6e3230263bcb4b92019061030c565b506060820151805161010d91600384019160209091019061030c565b509050506101976000336040805190810160405280600781526020017f666f7220726179000000000000000000000000000000000000000000000000008152506040805190810160405280600281526020017f3c3300000000000000000000000000000000000000000000000000000000000081525061019c640100000000026401000000009004565b6103a7565b60008054600190810180835560408051608081018252888152600160a060020a0388811660208084019182528385018a8152606085018a9052958852868152939096208251815595519486018054600160a060020a031916959091169490941790935590518051929392610216926002850192019061030c565b506060820151805161023291600384019160209091019061030c565b509050507f876444e1b96e308d559d54b256109419e023a401d62f05bf78f502363247cd8d600054836040518083815260200180602001828103825283818151815260200191508051906020019080838360005b8381101561029e578181015183820152602001610286565b50505050905090810190601f1680156102cb5780820380516001836020036101000a031916815260200191505b50935050505060405180910390a15050506000908152600160208181526040808420830154600160a060020a03168452600290915290912080549091019055565b828054600181600116156101000203166002900490600052602060002090601f016020900481019282601f1061034d57805160ff191683800117855561037a565b8280016001018555821561037a579182015b8281111561037a57825182559160200191906001019061035f565b5061038692915061038a565b5090565b6103a491905b808211156103865760008155600101610390565b90565b6106d8806103b66000396000f3fe6080604052600436106100615763ffffffff7c01000000000000000000000000000000000000000000000000000000006000350416630e54492e811461006657806364afe61c1461018e578063b3c65e88146102df578063e486033914610306575b600080fd5b34801561007257600080fd5b506100906004803603602081101561008957600080fd5b5035610339565b6040518085815260200184600160a060020a0316600160a060020a031681526020018060200180602001838103835285818151815260200191508051906020019080838360005b838110156100ef5781810151838201526020016100d7565b50505050905090810190601f16801561011c5780820380516001836020036101000a031916815260200191505b50838103825284518152845160209182019186019080838360005b8381101561014f578181015183820152602001610137565b50505050905090810190601f16801561017c5780820380516001836020036101000a031916815260200191505b50965050505050505060405180910390f35b34801561019a57600080fd5b506102dd600480360360808110156101b157600080fd5b813591600160a060020a03602082013516918101906060810160408201356401000000008111156101e157600080fd5b8201836020820111156101f357600080fd5b8035906020019184600183028401116401000000008311171561021557600080fd5b91908080601f016020809104026020016040519081016040528093929190818152602001838380828437600092019190915250929594936020810193503591505064010000000081111561026857600080fd5b82018360208201111561027a57600080fd5b8035906020019184600183028401116401000000008311171561029c57600080fd5b91908080601f01602080910402602001604051908101604052809392919081815260200183838082843760009201919091525092955061047c945050505050565b005b3480156102eb57600080fd5b506102f46105f9565b60408051918252519081900360200190f35b34801561031257600080fd5b506102f46004803603602081101561032957600080fd5b5035600160a060020a03166105ff565b6001602081815260009283526040928390208054818401546002808401805488516101009882161598909802600019011691909104601f81018690048602870186019097528686529195600160a060020a039091169492938301828280156103e25780601f106103b7576101008083540402835291602001916103e2565b820191906000526020600020905b8154815290600101906020018083116103c557829003601f168201915b5050505060038301805460408051602060026001851615610100026000190190941693909304601f81018490048402820184019092528181529495949350908301828280156104725780601f1061044757610100808354040283529160200191610472565b820191906000526020600020905b81548152906001019060200180831161045557829003601f168201915b5050505050905084565b60008054600190810180835560408051608081018252888152600160a060020a0388811660208084019182528385018a8152606085018a905295885286815293909620825181559551948601805473ffffffffffffffffffffffffffffffffffffffff19169590911694909417909355905180519293926105039260028501920190610611565b506060820151805161051f916003840191602090910190610611565b509050507f876444e1b96e308d559d54b256109419e023a401d62f05bf78f502363247cd8d600054836040518083815260200180602001828103825283818151815260200191508051906020019080838360005b8381101561058b578181015183820152602001610573565b50505050905090810190601f1680156105b85780820380516001836020036101000a031916815260200191505b50935050505060405180910390a15050506000908152600160208181526040808420830154600160a060020a03168452600290915290912080549091019055565b60005481565b60026020526000908152604090205481565b828054600181600116156101000203166002900490600052602060002090601f016020900481019282601f1061065257805160ff191683800117855561067f565b8280016001018555821561067f579182015b8281111561067f578251825591602001919060010190610664565b5061068b92915061068f565b5090565b6106a991905b8082111561068b5760008155600101610695565b9056fea165627a7a723058201177d992ee18f36c76639d7a24c85acd49916e13e49635e24f076b2bc8ee2dfb0029",
  "source": "pragma solidity ^0.5.0;\r\n\r\ncontract Monolith {\r\n    uint public publishCount = 0;\r\n\r\n    struct Fiction {\r\n        uint from;\r\n        address publisher;\r\n        string meta;\r\n        string content;\r\n    }\r\n\r\n    mapping(uint => Fiction) public fictions;\r\n    mapping(address => uint) public tokens;\r\n\r\n    event FictionPublished(uint id, string meta);\r\n\r\n    constructor() public {\r\n        fictions[0] = Fiction(0, msg.sender, \"\", \"\");\r\n        publish(0, msg.sender, \"for ray\", \"<3\");\r\n    }\r\n\r\n    function publish(uint _from, address _publisher, string memory _meta, string memory _content) public {\r\n        publishCount++;\r\n        fictions[publishCount] = Fiction(_from, _publisher, _meta, _content);\r\n        emit FictionPublished(publishCount, _meta);\r\n        tokens[fictions[_from].publisher]++;\r\n    }\r\n}\r\n",
  "sourcePath": "C:/dofdev/openfiction/contracts/Monolith.sol",
  "compiler": {
    "name": "solc",
    "version": "0.5.0+commit.1d4f565a.Emscripten.clang"
  },
  "schemaVersion": "3.0.1",
  "updatedAt": "2020-04-30T05:38:03.148Z",
  "devdoc": {
    "methods": {}
  },
  "userdoc": {
    "methods": {}
  }
}