{
  "contractName": "Monolith",
  "abi": [
    {
      "constant": true,
      "inputs": [
        {
          "name": "",
          "type": "uint256"
        }
      ],
      "name": "credits",
      "outputs": [
        {
          "name": "",
          "type": "uint256"
        }
      ],
      "payable": false,
      "stateMutability": "view",
      "type": "function",
      "signature": "0x036a1c22"
    },
    {
      "constant": true,
      "inputs": [
        {
          "name": "",
          "type": "uint256"
        }
      ],
      "name": "metas",
      "outputs": [
        {
          "name": "",
          "type": "string"
        }
      ],
      "payable": false,
      "stateMutability": "view",
      "type": "function",
      "signature": "0x277ecfbb"
    },
    {
      "constant": true,
      "inputs": [],
      "name": "publishCount",
      "outputs": [
        {
          "name": "",
          "type": "uint256"
        }
      ],
      "payable": false,
      "stateMutability": "view",
      "type": "function",
      "signature": "0xb3c65e88"
    },
    {
      "constant": true,
      "inputs": [
        {
          "name": "",
          "type": "uint256"
        }
      ],
      "name": "contents",
      "outputs": [
        {
          "name": "",
          "type": "string"
        }
      ],
      "payable": false,
      "stateMutability": "view",
      "type": "function",
      "signature": "0xb5ecf912"
    },
    {
      "inputs": [],
      "payable": false,
      "stateMutability": "nonpayable",
      "type": "constructor",
      "signature": "constructor"
    },
    {
      "anonymous": false,
      "inputs": [
        {
          "indexed": false,
          "name": "id",
          "type": "uint256"
        },
        {
          "indexed": false,
          "name": "meta",
          "type": "string"
        }
      ],
      "name": "FictionPublished",
      "type": "event",
      "signature": "0x876444e1b96e308d559d54b256109419e023a401d62f05bf78f502363247cd8d"
    },
    {
      "constant": false,
      "inputs": [
        {
          "name": "_credit",
          "type": "uint256"
        },
        {
          "name": "_meta",
          "type": "string"
        },
        {
          "name": "_content",
          "type": "string"
        }
      ],
      "name": "publish",
      "outputs": [],
      "payable": false,
      "stateMutability": "nonpayable",
      "type": "function",
      "signature": "0xf0006940"
    },
    {
      "constant": false,
      "inputs": [
        {
          "name": "_to",
          "type": "uint256"
        }
      ],
      "name": "payback",
      "outputs": [],
      "payable": true,
      "stateMutability": "payable",
      "type": "function",
      "signature": "0xa846c2fd"
    }
  ],
  "bytecode": "0x60806040526000805534801561001457600080fd5b506040805160208181018352600080835283519182019093528281526100449291906401000000006100ce810204565b6100c960006040805190810160405280600781526020017f67656e65736973000000000000000000000000000000000000000000000000008152506040805190810160405280601381526020017f496e2074686520626567696e6e696e672e2e2e000000000000000000000000008152506100ce640100000000026401000000009004565b610307565b600083101580156100e157506000548311155b151561014e57604080517f08c379a000000000000000000000000000000000000000000000000000000000815260206004820152601660248201527f696e76616c6964206372656469742866726f6d20782900000000000000000000604482015290519081900360640190fd5b6000805481526001602090815260408083208690558254835260028252909120835161017c9285019061026c565b50600080548152600360209081526040909120825161019d9284019061026c565b507f876444e1b96e308d559d54b256109419e023a401d62f05bf78f502363247cd8d600054836040518083815260200180602001828103825283818151815260200191508051906020019080838360005b838110156102065781810151838201526020016101ee565b50505050905090810190601f1680156102335780820380516001836020036101000a031916815260200191505b50935050505060405180910390a150506000805481526004602052604081208054600160a060020a031916331790558054600101905550565b828054600181600116156101000203166002900490600052602060002090601f016020900481019282601f106102ad57805160ff19168380011785556102da565b828001600101855582156102da579182015b828111156102da5782518255916020019190600101906102bf565b506102e69291506102ea565b5090565b61030491905b808211156102e657600081556001016102f0565b90565b6107d6806103166000396000f3fe6080604052600436106100775763ffffffff7c0100000000000000000000000000000000000000000000000000000000600035041663036a1c22811461007c578063277ecfbb146100b8578063a846c2fd14610157578063b3c65e8814610176578063b5ecf9121461018b578063f0006940146101b5575b600080fd5b34801561008857600080fd5b506100a66004803603602081101561009f57600080fd5b50356102f6565b60408051918252519081900360200190f35b3480156100c457600080fd5b506100e2600480360360208110156100db57600080fd5b5035610308565b6040805160208082528351818301528351919283929083019185019080838360005b8381101561011c578181015183820152602001610104565b50505050905090810190601f1680156101495780820380516001836020036101000a031916815260200191505b509250505060405180910390f35b6101746004803603602081101561016d57600080fd5b50356103a1565b005b34801561018257600080fd5b506100a66104f6565b34801561019757600080fd5b506100e2600480360360208110156101ae57600080fd5b50356104fc565b3480156101c157600080fd5b50610174600480360360608110156101d857600080fd5b813591908101906040810160208201356401000000008111156101fa57600080fd5b82018360208201111561020c57600080fd5b8035906020019184600183028401116401000000008311171561022e57600080fd5b91908080601f016020809104026020016040519081016040528093929190818152602001838380828437600092019190915250929594936020810193503591505064010000000081111561028157600080fd5b82018360208201111561029357600080fd5b803590602001918460018302840111640100000000831117156102b557600080fd5b91908080601f016020809104026020016040519081016040528093929190818152602001838380828437600092019190915250929550610564945050505050565b60016020526000908152604090205481565b600260208181526000928352604092839020805484516001821615610100026000190190911693909304601f81018390048302840183019094528383529192908301828280156103995780601f1061036e57610100808354040283529160200191610399565b820191906000526020600020905b81548152906001019060200180831161037c57829003601f168201915b505050505081565b600081101580156103b3575060005481105b151561042057604080517f08c379a000000000000000000000000000000000000000000000000000000000815260206004820152601d60248201527f6e6f2070617961626c6520616464726573732061742074686174206964000000604482015290519081900360640190fd5b80345b600082111561049f576000828152600460205260408082205490516002840493849003939273ffffffffffffffffffffffffffffffffffffffff909216916108fc841502918491818181858888f19350505050158015610487573d6000803e3d6000fd5b50506000918252600160205260409091205490610423565b60008281526004602052604080822054905173ffffffffffffffffffffffffffffffffffffffff9091169183156108fc02918491818181858888f193505050501580156104f0573d6000803e3d6000fd5b50505050565b60005481565b60036020908152600091825260409182902080548351601f6002600019610100600186161502019093169290920491820184900484028101840190945280845290918301828280156103995780601f1061036e57610100808354040283529160200191610399565b6000831015801561057757506000548311155b15156105e457604080517f08c379a000000000000000000000000000000000000000000000000000000000815260206004820152601660248201527f696e76616c6964206372656469742866726f6d20782900000000000000000000604482015290519081900360640190fd5b600080548152600160209081526040808320869055825483526002825290912083516106129285019061070f565b5060008054815260036020908152604090912082516106339284019061070f565b507f876444e1b96e308d559d54b256109419e023a401d62f05bf78f502363247cd8d600054836040518083815260200180602001828103825283818151815260200191508051906020019080838360005b8381101561069c578181015183820152602001610684565b50505050905090810190601f1680156106c95780820380516001836020036101000a031916815260200191505b50935050505060405180910390a15050600080548152600460205260408120805473ffffffffffffffffffffffffffffffffffffffff1916331790558054600101905550565b828054600181600116156101000203166002900490600052602060002090601f016020900481019282601f1061075057805160ff191683800117855561077d565b8280016001018555821561077d579182015b8281111561077d578251825591602001919060010190610762565b5061078992915061078d565b5090565b6107a791905b808211156107895760008155600101610793565b9056fea165627a7a72305820afe2405acb724b8eab68ddf25f903ddfc6893052ceffe2cb097cbb1263f66e0b0029",
  "source": "pragma solidity ^0.5.0;\r\n\r\ncontract Monolith {\r\n    uint256 public publishCount = 0;\r\n\r\n    mapping(uint256 => uint256) public credits;\r\n    mapping(uint256 => string) public metas;\r\n    mapping(uint256 => string) public contents;\r\n    event FictionPublished(uint256 id, string meta);\r\n\r\n    constructor() public {\r\n        publish(0, \"\", \"\");\r\n        publish(0, \"genesis\", \"In the beginning...\");\r\n    }\r\n\r\n    function publish(\r\n        uint256 _credit,\r\n        string memory _meta,\r\n        string memory _content\r\n    ) public {\r\n        require(_credit >= 0 && _credit <= publishCount, \"invalid credit(from x)\");\r\n        credits[publishCount] = _credit;\r\n        metas[publishCount] = _meta;\r\n        contents[publishCount] = _content;\r\n        emit FictionPublished(publishCount, _meta);\r\n        authors[publishCount] = msg.sender;\r\n        publishCount++;\r\n    }\r\n\r\n    mapping(uint256 => address payable) authors;\r\n\r\n    function payback(uint256 _to) public payable {\r\n      require(_to >= 0 && _to < publishCount, \"no payable address at that id\");\r\n      // require divisible by 2\r\n      uint256 receiver = _to;\r\n      uint256 value = msg.value;\r\n      while (receiver > 0)\r\n      {\r\n        uint256 piece = value / 2;\r\n        value -= piece;\r\n        authors[receiver].transfer(piece);\r\n        receiver = credits[receiver];\r\n      }\r\n      authors[receiver].transfer(value);\r\n    }\r\n}\r\n",
  "sourcePath": "C:/dofdev/openfiction/contracts/Monolith.sol",
  "compiler": {
    "name": "solc",
    "version": "0.5.0+commit.1d4f565a.Emscripten.clang"
  },
  "schemaVersion": "3.0.1",
  "updatedAt": "2020-06-29T03:37:08.471Z",
  "devdoc": {
    "methods": {}
  },
  "userdoc": {
    "methods": {}
  }
}