{
  "contractName": "Monolith",
  "abi": [
    {
      "constant": true,
      "inputs": [
        {
          "name": "",
          "type": "uint256"
        }
      ],
      "name": "fictions",
      "outputs": [
        {
          "name": "from",
          "type": "uint256"
        },
        {
          "name": "meta",
          "type": "string"
        },
        {
          "name": "content",
          "type": "string"
        }
      ],
      "payable": false,
      "stateMutability": "view",
      "type": "function",
      "signature": "0x0e54492e"
    },
    {
      "constant": true,
      "inputs": [],
      "name": "publishCount",
      "outputs": [
        {
          "name": "",
          "type": "uint256"
        }
      ],
      "payable": false,
      "stateMutability": "view",
      "type": "function",
      "signature": "0xb3c65e88"
    },
    {
      "inputs": [],
      "payable": false,
      "stateMutability": "nonpayable",
      "type": "constructor",
      "signature": "constructor"
    },
    {
      "anonymous": false,
      "inputs": [
        {
          "indexed": false,
          "name": "id",
          "type": "uint256"
        },
        {
          "indexed": false,
          "name": "meta",
          "type": "string"
        }
      ],
      "name": "FictionPublished",
      "type": "event",
      "signature": "0x876444e1b96e308d559d54b256109419e023a401d62f05bf78f502363247cd8d"
    },
    {
      "constant": false,
      "inputs": [
        {
          "name": "_from",
          "type": "uint256"
        },
        {
          "name": "_meta",
          "type": "string"
        },
        {
          "name": "_content",
          "type": "string"
        }
      ],
      "name": "publish",
      "outputs": [],
      "payable": false,
      "stateMutability": "nonpayable",
      "type": "function",
      "signature": "0xf0006940"
    },
    {
      "constant": false,
      "inputs": [
        {
          "name": "_to",
          "type": "uint256"
        }
      ],
      "name": "payback",
      "outputs": [],
      "payable": true,
      "stateMutability": "payable",
      "type": "function",
      "signature": "0xa846c2fd"
    }
  ],
  "bytecode": "0x60806040526000805534801561001457600080fd5b5060408051606081018252600080825282516020818101855282825280840191825284518082018652838152948401949094529080526001835281517fa6eef7e35abe7026729641147f7915573c7e97b47efa546f5f6e3230263bcb4990815590518051929391926100a9927fa6eef7e35abe7026729641147f7915573c7e97b47efa546f5f6e3230263bcb4a920190610310565b50604082015180516100c5916002840191602090910190610310565b50506000808052600260209081527fac33ff75c19e70fe83507db0d683fd3465c996598dc972688b7ace676c89077b8054600160a060020a031916331790556040805180830182528381528151808301909252600b82527f666f7220726179205e2d5e00000000000000000000000000000000000000000092820192909252610157935064010000000061015c810204565b6103ab565b6000831015801561016f57506000548311155b15156101dc57604080517f08c379a000000000000000000000000000000000000000000000000000000000815260206004820152601760248201527f696e76616c6964206372656469742866726f6d20696429000000000000000000604482015290519081900360640190fd5b600080546001908101808355604080516060810182528781526020808201888152828401889052938652848152919094208451815591518051929361022993908501929190910190610310565b5060408201518051610245916002840191602090910190610310565b509050507f876444e1b96e308d559d54b256109419e023a401d62f05bf78f502363247cd8d600054836040518083815260200180602001828103825283818151815260200191508051906020019080838360005b838110156102b1578181015183820152602001610299565b50505050905090810190601f1680156102de5780820380516001836020036101000a031916815260200191505b50935050505060405180910390a150506000805481526002602052604090208054600160a060020a0319163317905550565b828054600181600116156101000203166002900490600052602060002090601f016020900481019282601f1061035157805160ff191683800117855561037e565b8280016001018555821561037e579182015b8281111561037e578251825591602001919060010190610363565b5061038a92915061038e565b5090565b6103a891905b8082111561038a5760008155600101610394565b90565b61081a806103ba6000396000f3fe6080604052600436106100615763ffffffff7c01000000000000000000000000000000000000000000000000000000006000350416630e54492e8114610066578063a846c2fd14610175578063b3c65e8814610194578063f0006940146101bb575b600080fd5b34801561007257600080fd5b506100906004803603602081101561008957600080fd5b50356102fc565b604051808481526020018060200180602001838103835285818151815260200191508051906020019080838360005b838110156100d75781810151838201526020016100bf565b50505050905090810190601f1680156101045780820380516001836020036101000a031916815260200191505b50838103825284518152845160209182019186019080838360005b8381101561013757818101518382015260200161011f565b50505050905090810190601f1680156101645780820380516001836020036101000a031916815260200191505b509550505050505060405180910390f35b6101926004803603602081101561018b57600080fd5b5035610434565b005b3480156101a057600080fd5b506101a961058c565b60408051918252519081900360200190f35b3480156101c757600080fd5b50610192600480360360608110156101de57600080fd5b8135919081019060408101602082013564010000000081111561020057600080fd5b82018360208201111561021257600080fd5b8035906020019184600183028401116401000000008311171561023457600080fd5b91908080601f016020809104026020016040519081016040528093929190818152602001838380828437600092019190915250929594936020810193503591505064010000000081111561028757600080fd5b82018360208201111561029957600080fd5b803590602001918460018302840111640100000000831117156102bb57600080fd5b91908080601f016020809104026020016040519081016040528093929190818152602001838380828437600092019190915250929550610592945050505050565b600160208181526000928352604092839020805481840180548651600296821615610100026000190190911695909504601f810185900485028601850190965285855290949193929091908301828280156103985780601f1061036d57610100808354040283529160200191610398565b820191906000526020600020905b81548152906001019060200180831161037b57829003601f168201915b50505060028085018054604080516020601f600019610100600187161502019094169590950492830185900485028101850190915281815295969594509092509083018282801561042a5780601f106103ff5761010080835404028352916020019161042a565b820191906000526020600020905b81548152906001019060200180831161040d57829003601f168201915b5050505050905083565b6000811015801561044757506000548111155b15156104b457604080517f08c379a000000000000000000000000000000000000000000000000000000000815260206004820152601d60248201527f6e6f2070617961626c6520616464726573732061742074686174206964000000604482015290519081900360640190fd5b80345b600082111561053557600082815260026020819052604080832054905191840493849003939273ffffffffffffffffffffffffffffffffffffffff909116916108fc84150291849190818181858888f1935050505015801561051d573d6000803e3d6000fd5b505060009182526001602052604090912054906104b7565b60008281526002602052604080822054905173ffffffffffffffffffffffffffffffffffffffff9091169183156108fc02918491818181858888f19350505050158015610586573d6000803e3d6000fd5b50505050565b60005481565b600083101580156105a557506000548311155b151561061257604080517f08c379a000000000000000000000000000000000000000000000000000000000815260206004820152601760248201527f696e76616c6964206372656469742866726f6d20696429000000000000000000604482015290519081900360640190fd5b600080546001908101808355604080516060810182528781526020808201888152828401889052938652848152919094208451815591518051929361065f93908501929190910190610753565b506040820151805161067b916002840191602090910190610753565b509050507f876444e1b96e308d559d54b256109419e023a401d62f05bf78f502363247cd8d600054836040518083815260200180602001828103825283818151815260200191508051906020019080838360005b838110156106e75781810151838201526020016106cf565b50505050905090810190601f1680156107145780820380516001836020036101000a031916815260200191505b50935050505060405180910390a15050600080548152600260205260409020805473ffffffffffffffffffffffffffffffffffffffff19163317905550565b828054600181600116156101000203166002900490600052602060002090601f016020900481019282601f1061079457805160ff19168380011785556107c1565b828001600101855582156107c1579182015b828111156107c15782518255916020019190600101906107a6565b506107cd9291506107d1565b5090565b6107eb91905b808211156107cd57600081556001016107d7565b9056fea165627a7a72305820878adc505b5b587aaee18a241d3a842ff48a5ace323fd84f551deeb99bbf377e0029",
  "source": "pragma solidity ^0.5.0;\r\n\r\ncontract Monolith {\r\n    uint256 public publishCount = 0;\r\n\r\n    struct Fiction {\r\n        uint256 from;\r\n        string meta;\r\n        string content;\r\n    }\r\n\r\n    mapping(uint256 => Fiction) public fictions;\r\n    event FictionPublished(uint256 id, string meta);\r\n\r\n    constructor() public {\r\n        fictions[0] = Fiction(0, \"\", \"\");\r\n        credit[0] = msg.sender;\r\n        publish(0, \"\", \"for ray ^-^\");\r\n    }\r\n\r\n    function publish(\r\n        uint256 _from,\r\n        string memory _meta,\r\n        string memory _content\r\n    ) public {\r\n        require(_from >= 0 && _from <= publishCount, \"invalid credit(from id)\");\r\n        publishCount++;\r\n        fictions[publishCount] = Fiction(_from, _meta, _content);\r\n        emit FictionPublished(publishCount, _meta);\r\n        credit[publishCount] = msg.sender;\r\n    }\r\n\r\n    mapping(uint256 => address payable) credit;\r\n\r\n    function payback(uint256 _to) public payable {\r\n      require(_to >= 0 && _to <= publishCount, \"no payable address at that id\");\r\n      uint256 receiver = _to;\r\n      uint256 value = msg.value;\r\n      while (receiver > 0)\r\n      {\r\n        uint256 piece = value / 2;\r\n        value -= piece;\r\n        credit[receiver].transfer(piece);\r\n        receiver = fictions[receiver].from;\r\n      }\r\n      credit[receiver].transfer(value);\r\n    }\r\n}\r\n",
  "sourcePath": "C:/dofdev/openfiction/contracts/Monolith.sol",
  "compiler": {
    "name": "solc",
    "version": "0.5.0+commit.1d4f565a.Emscripten.clang"
  },
  "schemaVersion": "3.0.1",
  "updatedAt": "2020-06-09T01:46:24.608Z",
  "devdoc": {
    "methods": {}
  },
  "userdoc": {
    "methods": {}
  }
}